:100000000C942A000C94B00B0C94000C0C94500C23
:100010000C94E7090C94B4090C9481090C944E09D2
:100020000C941B090C94E8080C94B5080C948208F5
:100030000C9447000C9447000C9447000C94470024
:100040000C9447000C9447000C9447000C94470014
:100050000C94470011241FBECFE5D8E0DEBFCDBF12
:1000600011E0A0E6B0E0E6E6F2E302C005900D92F2
:10007000A43DB107D9F711E0A4EDB1E001C01D9294
:10008000AB3EB107E1F70E94F7170C9431190C94BD
:100090000000EF92FF920F931F937B018C0120E0F1
:1000A00030E040E05FE40E94490388238CF0C801FF
:1000B000B70120E030E040E05FE40E94C1010E940F
:1000C000A9039B01AC01205030404040504806C07D
:1000D000C801B7010E94A9039B01AC01B901CA0183
:1000E0001F910F91FF90EF900895A0E0B0E0EBE733
:1000F000F0E00C94FA18DC012B01FA019C9192308B
:1001000008F439C1EB018881823008F433C194309E
:1001100069F4843009F02FC111969C91119789815F
:10012000981709F428C1A4EBB0E025C1843009F484
:1001300021C18230A9F4923009F01DC19A01AD01AC
:1001400088E0EA010990AE01E90109929E0181501F
:10015000C1F7E201898111969C918923818308C1AD
:10016000923009F407C112962D903C901397EB0141
:100170008A819B811496AD90BD90CD90DC901797AD
:10018000EC80FD800E811F819101281B390BB90184
:1001900037FF04C066277727621B730B6032710537
:1001A0000CF061C0121613066CF537014801062EDB
:1001B00004C096948794779467940A94D2F721E0C8
:1001C00030E040E050E004C0220F331F441F551FB1
:1001D0006A95D2F721503040404050402E213F21B7
:1001E00040235123211531054105510521F021E01E
:1001F00030E040E050E079018A01E628F72808293C
:1002000019293CC0232BD1F1260E371E350146019A
:10021000062E04C096948794779467940A94D2F734
:1002200021E030E040E050E004C0220F331F441FC3
:10023000551F6A95D2F721503040404050402A2146
:100240003B214C215D21211531054105510521F04E
:1002500021E030E040E050E059016A01A628B728CB
:10026000C828D9280BC0821593052CF01C01AA249C
:10027000BB24650103C0EE24FF24870111969C91E5
:10028000D20111968C91981709F445C0992339F041
:10029000A80197012A193B094C095D0906C0A6016E
:1002A00095012E193F09400B510B57FD08C01182D3
:1002B0003382228224833583468357831DC081E0A5
:1002C00081833382228288279927DC01821B930B4A
:1002D000A40BB50B84839583A683B7830DC0220F2F
:1002E000331F441F551F24833583468357838281E0
:1002F000938101979383828324813581468157813D
:10030000DA01C9010197A109B1098F5F9F4FAF4F72
:10031000BF4328F30BC0918333822282EA0CFB1C7B
:100320000C1D1D1DE482F5820683178383E0808304
:10033000248135814681578157FF1AC0C901AA27F8
:1003400097FDA095BA2F81709070A070B0705695EF
:10035000479537952795822B932BA42BB52B848318
:100360009583A683B7838281938101969383828349
:10037000DF0101C0D201CD01CDB7DEB7E2E10C94BF
:100380001619A0E2B0E0E7ECF1E00C9406196983DD
:100390007A838B839C832D833E834F835887E9E048
:1003A000EE2EF12CEC0EFD1ECE010196B7010E943F
:1003B0009A058E010F5E1F4FCE010596B8010E946F
:1003C0009A058A8991E089278A8BC701B801AE0115
:1003D000475E5F4F0E9475000E94C504A096E6E04C
:1003E0000C942219A0E2B0E0E8EFF1E00C940619B9
:1003F00069837A838B839C832D833E834F835887C5
:10040000F9E0EF2EF12CEC0EFD1ECE010196B701A6
:100410000E949A058E010F5E1F4FCE010596B8010E
:100420000E949A05C701B801AE01475E5F4F0E9466
:1004300075000E94C504A096E6E00C942219A0E283
:10044000B0E0E5E2F2E00C94FA1869837A838B83DA
:100450009C832D833E834F835887CE010196BE0136
:10046000675F7F4F0E949A05CE010596BE016F5EC1
:100470007F4F0E949A059985923088F08989823051
:10048000C8F0943019F4823051F404C0843029F457
:10049000923081F484EB90E0C6C0923049F420E0C1
:1004A0009A858A89981321E02A87CE010996BBC0D4
:1004B000823049F420E09A858A89981321E02A8BBA
:1004C000CE014196B0C02D843E844F8458886D88FB
:1004D0007E888F88988CEE24FF248701AA24BB2471
:1004E000650140E050E060E070E0E0E0F0E0C10174
:1004F00081709070892BE9F0E60CF71C081D191D1E
:100500009A01AB012A0D3B1D4C1D5D1D80E090E062
:10051000A0E0B0E0E614F7040805190520F481E036
:1005200090E0A0E0B0E0BA01A901480F591F6A1F8E
:100530007B1FAA0CBB1CCC1CDD1C97FE08C081E0F5
:1005400090E0A0E0B0E0A82AB92ACA2ADB2A3196B6
:10055000E032F10549F0660C771C881C991C569412
:10056000479437942794C3CFFA85EA892B893C892D
:100570008B859C85280F391F2E5F3F4F17C0CA01FE
:1005800081709070892B61F016950795F794E79428
:1005900080E090E0A0E0B0E8E82AF92A0A2B1B2BC3
:1005A00076956795579547952F5F3F4F77FDE7CF36
:1005B0000CC0440F551F661F771F17FD4160EE0CDE
:1005C000FF1C001F111F21503040403090E05907A0
:1005D00090E0690790E4790760F32B8F3C8FDB0193
:1005E000CA018F779070A070B07080349105A1051A
:1005F000B10561F447FD0AC0E114F10401051105DC
:1006000029F0405C5F4F6F4F7F4F40781A8EFE1786
:1006100011F081E08A8F4D8F5E8F6F8F78A383E01A
:10062000898FCE0149960E94C504A096E2E10C9400
:100630001619A8E1B0E0EFE1F3E00C940619698324
:100640007A838B839C832D833E834F83588789E0F5
:10065000E82EF12CEC0EFD1ECE010196B7010E9492
:100660009A058E010F5E1F4FCE010596B8010E94BC
:100670009A058985823040F08989823028F0C70147
:10068000B8010E94120601C08FEF6896E6E00C9454
:100690002219A8E1B0E0EFE4F3E00C9406196983B5
:1006A0007A838B839C832D833E834F83588789E095
:1006B000E82EF12CEC0EFD1ECE010196B7010E9432
:1006C0009A058E010F5E1F4FCE010596B8010E945C
:1006D0009A058985823040F08989823028F0C701E7
:1006E000B8010E94120601C08FEF6896E6E00C94F4
:1006F0002219A8E1B0E0EFE7F3E00C940619698352
:100700007A838B839C832D833E834F83588789E034
:10071000E82EF12CEC0EFD1ECE010196B7010E94D1
:100720009A058E010F5E1F4FCE010596B8010E94FB
:100730009A058985823040F08989823028F0C70186
:10074000B8010E94120601C081E06896E6E00C94B0
:100750002219ACE0B0E0EFEAF3E00C940A196983E7
:100760007A838B839C83CE010196BE016B5F7F4FA2
:100770000E949A058D81823061F1823050F184307F
:1007800021F48E81882351F12EC02F81388537FDC9
:1007900020C06E812F3131051CF06623F9F023C093
:1007A0008EE190E0821B930B29853A854B855C8511
:1007B00004C056954795379527958A95D2F76623B5
:1007C000B1F050954095309521953F4F4F4F5F4F79
:1007D0000EC020E030E040E050E009C02FEF3FEFD6
:1007E0004FEF5FE704C020E030E040E050E8B9019F
:1007F000CA012C96E2E00C942619A8E0B0E0E3E0F0
:10080000F4E00C9402197B018C01611571058105DE
:10081000910519F482E0898360C083E089838EE1C9
:10082000C82ED12CDC82CB82ED82FE820F8318870A
:10083000C801B7010E947604FC013197F7FF3BC065
:10084000222733272E1B3F0B57016801022E04C0BD
:10085000D694C794B794A7940A94D2F740E050E096
:1008600060E070E081E090E0A0E0B0E004C0880FBC
:10087000991FAA1FBB1F2A95D2F70197A109B10999
:100880008E219F21A023B1230097A105B10521F05E
:1008900041E050E060E070E04A295B296C297D2945
:1008A0004D835E836F8378878EE190E08E1B9F0B74
:1008B0009C838B8312C0309781F00E2E04C0EE0C07
:1008C000FF1C001F111F0A94D2F7ED82FE820F83D6
:1008D0001887CE1ADF0ADC82CB821A82CE010196FB
:1008E0000E94C5042896EAE00C941E19EF92FF922C
:1008F0000F931F937B018C0180E0E81680E0F806DF
:1009000081E0080780E0180788F48FEFE816F1040B
:100910000105110531F028F088E090E0A0E0B0E09A
:1009200017C080E090E0A0E0B0E012C080E0E816E0
:1009300080E0F80680E0080781E0180728F088E1E9
:1009400090E0A0E0B0E004C080E190E0A0E0B0E082
:1009500020E230E040E050E0281B390B4A0B5B0BF3
:1009600004C016950795F794E7948A95D2F7F70196
:10097000E454FF4F8081281B310941095109C90105
:100980001F910F91FF90EF900895DF92EF92FF92E9
:100990000F931F93FC01E480F58006811781D180BD
:1009A0008081823048F480E090E0A0E1B0E0E82A65
:1009B000F92A0A2B1B2BA5C0843009F49FC0823072
:1009C00021F4EE24FF24870105C0E114F1040105A0
:1009D000110519F4E0E0F0E096C0628173819FEFA9
:1009E000623879070CF05BC022E83FEF261B370B1B
:1009F0002A3131052CF020E030E040E050E02AC000
:100A0000B801A701022E04C07695679557954795C2
:100A10000A94D2F781E090E0A0E0B0E004C0880F33
:100A2000991FAA1FBB1F2A95D2F70197A109B109E7
:100A30008E219F21A023B1230097A105B10521F0AC
:100A400081E090E0A0E0B0E09A01AB01282B392BC7
:100A50004A2B5B2BDA01C9018F779070A070B070C0
:100A600080349105A105B10539F427FF09C0205C48
:100A70003F4F4F4F5F4F04C0215C3F4F4F4F5F4F81
:100A8000E0E0F0E02030A0E03A07A0E04A07A0E470
:100A90005A0710F0E1E0F0E079018A0127C06038E0
:100AA000710564F5FB01E158FF4FD801C7018F774D
:100AB0009070A070B07080349105A105B10539F433
:100AC000E7FE0DC080E490E0A0E0B0E004C08FE35A
:100AD00090E0A0E0B0E0E80EF91E0A1F1B1F17FF10
:100AE00005C016950795F794E794319687E016951B
:100AF0000795F794E7948A95D1F705C0EE24FF2473
:100B00008701EFEFF0E06E2F679566276795902FCE
:100B10009F77D794DD24D7948E2F8695492F462B27
:100B2000582F5D29B701CA011F910F91FF90EF90D7
:100B3000DF900895FC01DB01408151812281622F09
:100B40006F7770E0221F2227221F9381892F880F41
:100B5000822B282F30E0991F9927991F11969C937B
:100B6000119721153105A9F541155105610571054B
:100B700011F482E037C082E89FEF13969C938E9326
:100B800012979A01AB0167E0220F331F441F551FD4
:100B90006A95D1F783E08C930DC0220F331F441F59
:100BA000551F12968D919C911397019713969C93C4
:100BB0008E931297203080E0380780E0480780E469
:100BC000580758F314962D933D934D935C931797C4
:100BD00008952F3F310579F44115510561057105DF
:100BE00019F484E08C93089564FF03C081E08C9332
:100BF00012C01C9210C02F57304013963C932E9376
:100C0000129783E08C9387E0440F551F661F771F70
:100C10008A95D1F7706414964D935D936D937C9390
:100C2000179708951F93DC01FB019C91923008F403
:100C300047C08081823008F443C0943051F411964B
:100C40001C91843099F58181682F70E0611B7109D6
:100C50003FC0843021F0923031F48230B9F181818B
:100C6000882389F12DC011961C9111978230F1F0E3
:100C700081811817D9F412962D913C911397828196
:100C800093818217930794F028173907BCF01496C4
:100C90008D919D910D90BC91A02D2481358146812F
:100CA0005781281739074A075B0718F4112341F0C9
:100CB0000AC082179307A407B50740F4112319F05F
:100CC00061E070E005C06FEF7FEF02C060E070E0B0
:100CD000CB011F910895DF93CF93CDB7DEB7A3E586
:100CE000B0E0E3E5F0E0808180648C93A3E5B0E0C0
:100CF000E3E5F0E08081877F8C93A3E5B0E0E3E556
:100D0000F0E0808180618C93A3E5B0E0E3E5F0E062
:100D1000808180628C93ECE5F0E080E88083A3E53D
:100D2000B0E0E3E5F0E08081887F8C93A3E5B0E05C
:100D3000E3E5F0E0808185608C93CF91DF910895A9
:100D4000DF93CF930F92CDB7DEB78983E2E5F0E072
:100D5000898180830F90CF91DF910895DF93CF93A6
:100D60000F92CDB7DEB78983ECE5F0E0898180830F
:100D70000F90CF91DF910895DF93CF930F92CDB76E
:100D8000DEB789830F90CF91DF910895DF93CF93E2
:100D90000F92CDB7DEB78983ECE5F0E089818083DF
:100DA0000F90CF91DF910895DF93CF93CDB7DEB74A
:100DB000E2E5F0E08081CF91DF910895DF93CF935A
:100DC000CDB7DEB7AFE4B0E0EFE4F0E080818E7F36
:100DD0008C93AFE4B0E0EFE4F0E0808182608C932C
:100DE000AEE4B0E0EEE4F0E0808188608C93AEE4A5
:100DF000B0E0EEE4F0E0808180618C93EAE4F0E022
:100E000084EF8083ABE4B0E0EBE4F0E080818160CC
:100E10008C93E8E4F0E01082A9E4B0E0E9E4F0E0CB
:100E200080818C93E6E4F0E080E28083E7E4F0E008
:100E30008EE48083AEE4B0E0EEE4F0E08081806494
:100E40008C93AFE4B0E0EFE4F0E080818F7B8C9393
:100E5000AFE4B0E0EFE4F0E0808180688C93AFE431
:100E6000B0E0EFE4F0E080818F7E8C93AFE4B0E0FF
:100E7000EFE4F0E0808180628C93A9E5B0E0E9E5E1
:100E8000F0E080818B7F8C93A9E5B0E0E9E5F0E0AC
:100E900080818F7E8C93A9E5B0E0E9E5F0E0808168
:100EA000877F8C93A9E5B0E0E9E5F0E080818F7D54
:100EB0008C93AEE4B0E0EEE4F0E08081887F8C9328
:100EC000AEE4B0E0EEE4F0E0808182608C93CF91FC
:100ED000DF910895DF93CF9300D0CDB7DEB79A832B
:100EE0008983ECE4F0E089818083ADE4B0E0EDE457
:100EF000F0E0208189819A81892F9927822B8C9318
:100F00000F900F90CF91DF910895DF93CF9300D092
:100F1000CDB7DEB79A838983EAE4F0E089818083E4
:100F2000ABE4B0E0EBE4F0E0208189819A81892F85
:100F30009927822B8C930F900F90CF91DF9108957A
:100F4000DF93CF9300D0CDB7DEB79A838983E8E4EF
:100F5000F0E089818083A9E4B0E0E9E4F0E0208159
:100F600089819A81892F9927822B8C930F900F90DA
:100F7000CF91DF910895DF93CF9300D0CDB7DEB747
:100F8000ECE4F0E08081882F90E09A838983EDE49F
:100F9000F0E08081882F90E0982F88279C0189813C
:100FA0009A81822B932B9A83898389819A810F90CE
:100FB0000F90CF91DF910895DF93CF93CDB7DEB738
:100FC000A5E4B0E0E5E4F0E0808180648C93A5E4E2
:100FD000B0E0E5E4F0E0808188608C93A5E4B0E0C7
:100FE000E5E4F0E080818F7E8C93A5E4B0E0E5E459
:100FF000F0E0808180628C93E3E4F0E080EC808319
:10100000A5E4B0E0E5E4F0E08081887F8C93A5E47E
:10101000B0E0E5E4F0E0808185608C93CF91DF91D2
:101020000895DF93CF930F92CDB7DEB78983E4E4C1
:10103000F0E0898180830F90CF91DF910895DF9355
:10104000CF930F92CDB7DEB78983E3E4F0E08981D7
:1010500080830F90CF91DF910895DF93CF930F920C
:10106000CDB7DEB78983E3E4F0E0898180830F9018
:10107000CF91DF910895DF93CF930F92CDB7DEB775
:1010800089830F90CF91DF910895DF93CF93CDB7F0
:10109000DEB7E4E4F0E08081CF91DF910895DF9343
:1010A000CF9300D000D00F92CDB7DEB79C838B8357
:1010B0006D831A828D818C30D0F48D818430B8F0AC
:1010C0008D81845089838B819C81009769F089810F
:1010D000882F90E0880F991FFC01EC52FE4F8B8106
:1010E0009C819183808305C082E08A8302C083E073
:1010F0008A838A810F900F900F900F900F90CF915D
:10110000DF9108951F920F920FB60F9211242F9323
:101110003F934F935F936F937F938F939F93AF937F
:10112000BF93EF93FF93DF93CF93CDB7DEB780915B
:10113000E2019091E301009729F0E091E201F09142
:10114000E3010995CF91DF91FF91EF91BF91AF91AD
:101150009F918F917F916F915F914F913F912F91CF
:101160000F900FBE0F901F9018951F920F920FB601
:101170000F9211242F933F934F935F936F937F931D
:101180008F939F93AF93BF93EF93FF93DF93CF938F
:10119000CDB7DEB78091E0019091E101009729F091
:1011A000E091E001F091E1010995CF91DF91FF918C
:1011B000EF91BF91AF919F918F917F916F915F91CF
:1011C0004F913F912F910F900FBE0F901F90189548
:1011D0001F920F920FB60F9211242F933F934F93AC
:1011E0005F936F937F938F939F93AF93BF93EF938F
:1011F000FF93DF93CF93CDB7DEB78091DE0190915F
:10120000DF01009729F0E091DE01F091DF010995FF
:10121000CF91DF91FF91EF91BF91AF919F918F910E
:101220007F916F915F914F913F912F910F900FBEE2
:101230000F901F9018951F920F920FB60F921124C6
:101240002F933F934F935F936F937F938F939F93CE
:10125000AF93BF93EF93FF93DF93CF93CDB7DEB7F9
:101260008091DC019091DD01009729F0E091DC0193
:10127000F091DD010995CF91DF91FF91EF91BF9141
:10128000AF919F918F917F916F915F914F913F911E
:101290002F910F900FBE0F901F9018951F920F92D5
:1012A0000FB60F9211242F933F934F935F936F9339
:1012B0007F938F939F93AF93BF93EF93FF93DF93AE
:1012C000CF93CDB7DEB78091DA019091DB01009723
:1012D00029F0E091DA01F091DB010995CF91DF91DE
:1012E000FF91EF91BF91AF919F918F917F916F91FE
:1012F0005F914F913F912F910F900FBE0F901F90D4
:1013000018951F920F920FB60F9211242F933F93AF
:101310004F935F936F937F938F939F93AF93BF93FD
:10132000EF93FF93DF93CF93CDB7DEB78091D801D2
:101330009091D901009729F0E091D801F091D9015D
:101340000995CF91DF91FF91EF91BF91AF919F915F
:101350008F917F916F915F914F913F912F910F905E
:101360000FBE0F901F9018951F920F920FB60F92FD
:1013700011242F933F934F935F936F937F938F939A
:101380009F93AF93BF93EF93FF93DF93CF93CDB72B
:10139000DEB78091D6019091D701009729F0E091B6
:1013A000D601F091D7010995CF91DF91FF91EF918F
:1013B000BF91AF919F918F917F916F915F914F916D
:1013C0003F912F910F900FBE0F901F9018951F9275
:1013D0000F920FB60F9211242F933F934F935F9369
:1013E0006F937F938F939F93AF93BF93EF93FF93ED
:1013F000DF93CF93CDB7DEB78091D4019091D50123
:10140000009729F0E091D401F091D5010995CF9191
:10141000DF91FF91EF91BF91AF919F918F917F915C
:101420006F915F914F913F912F910F900FBE0F9051
:101430001F901895DF93CF93CDB7DEB7AFE5B0E03F
:10144000EFE5F0E0808180688C93CF91DF91089583
:10145000DF93CF93CDB7DEB7AFE5B0E0EFE5F0E0D7
:1014600080818F778C93CF91DF910895DF93CF9315
:10147000CDB7DEB7ABE5B0E0EBE5F0E080818064AE
:101480008C93A5E5B0E0E5E5F0E0808182608C9387
:10149000A5E5B0E0E5E5F0E0808181608C93ABE507
:1014A000B0E0EBE5F0E0808180688C93A5E5B0E0EA
:1014B000E5E5F0E0808188608C93A5E5B0E0E5E5A6
:1014C000F0E0808184608C93ABE5B0E0EBE5F0E088
:1014D00080818F7D8C93CF91DF910895DF93CF939F
:1014E00000D000D0CDB7DEB789838981282F30E0C6
:1014F0003C832B838B819C818130910509F442C010
:101500002B813C81223031052CF48B819C8100970A
:1015100051F147C02B813C812230310531F08B8164
:101520009C818330910581F03CC0A5E5B0E0E5E504
:10153000F0E080818D7F8C93A5E5B0E0E5E5F0E0FB
:1015400080818E7F8C9330C0A5E5B0E0E5E5F0E0CA
:1015500080818D7F8C93A5E5B0E0E5E5F0E08081AA
:1015600081608C9321C0A5E5B0E0E5E5F0E08081E5
:1015700082608C93A5E5B0E0E5E5F0E080818E7FA8
:101580008C9312C0A5E5B0E0E5E5F0E080818260D3
:101590008C93A5E5B0E0E5E5F0E0808181608C9377
:1015A00003C091E09A8308C0ABE5B0E0EBE5F0E062
:1015B000808180648C931A828A810F900F900F90A3
:1015C0000F90CF91DF910895DF93CF9300D000D09B
:1015D000CDB7DEB789838981282F30E03C832B8308
:1015E0008B819C818130910509F442C02B813C8123
:1015F000223031052CF48B819C81009751F147C03A
:101600002B813C812230310531F08B819C818330EC
:10161000910581F03CC0A5E5B0E0E5E5F0E0808112
:10162000877F8C93A5E5B0E0E5E5F0E080818B7FD6
:101630008C9330C0A5E5B0E0E5E5F0E08081877FE0
:101640008C93A5E5B0E0E5E5F0E0808184608C93C3
:1016500021C0A5E5B0E0E5E5F0E0808188608C93ED
:10166000A5E5B0E0E5E5F0E080818B7F8C9312C0CA
:10167000A5E5B0E0E5E5F0E0808188608C93A5E524
:10168000B0E0E5E5F0E0808184608C9303C091E0F8
:101690009A8308C0ABE5B0E0EBE5F0E080818068BC
:1016A0008C931A828A810F900F900F900F90CF9198
:1016B000DF910895DF93CF9300D000D0CDB7DEB790
:1016C00089838981282F30E03C832B838B819C8107
:1016D000009731F02B813C812130310549F010C059
:1016E000A4E5B0E0E4E5F0E080818F7B8C930BC053
:1016F000A4E5B0E0E4E5F0E0808180648C9303C071
:1017000031E03A8308C0ABE5B0E0EBE5F0E0808182
:1017100080628C931A828A810F900F900F900F90A5
:10172000CF91DF910895DF93CF9300D00F92CDB783
:10173000DEB79A83898389819A81009741F08981F4
:101740009A819093E5018093E4011B8202C081E0BD
:101750008B838B810F900F900F90CF91DF91089525
:101760001F920F920FB60F9211242F933F934F9316
:101770005F936F937F938F939F93AF93BF93EF93F9
:10178000FF93DF93CF93CDB7DEB78091E4019091C3
:10179000E501009729F0E091E401F091E501099558
:1017A000CF91DF91FF91EF91BF91AF919F918F9179
:1017B0007F916F915F914F913F912F910F900FBE4D
:1017C0000F901F901895DF93CF9300D00F92CDB755
:1017D000DEB79A83898389819A81009741F0898154
:1017E0009A819093E7018093E6011B8202C081E019
:1017F0008B838B810F900F900F90CF91DF91089585
:101800001F920F920FB60F9211242F933F934F9375
:101810005F936F937F938F939F93AF93BF93EF9358
:10182000FF93DF93CF93CDB7DEB78091E601909120
:10183000E701009729F0E091E601F091E7010995B1
:10184000CF91DF91FF91EF91BF91AF919F918F91D8
:101850007F916F915F914F913F912F910F900FBEAC
:101860000F901F901895DF93CF9300D00F92CDB7B4
:10187000DEB79A83898389819A81009741F08981B3
:101880009A819093E9018093E8011B8202C081E074
:101890008B838B810F900F900F90CF91DF910895E4
:1018A0001F920F920FB60F9211242F933F934F93D5
:1018B0005F936F937F938F939F93AF93BF93EF93B8
:1018C000FF93DF93CF93CDB7DEB78091E80190917E
:1018D000E901009729F0E091E801F091E90109950B
:1018E000CF91DF91FF91EF91BF91AF919F918F9138
:1018F0007F916F915F914F913F912F910F900FBE0C
:101900000F901F901895DF93CF93CDB7DEB7279731
:101910000FB6F894DEBF0FBECDBF89836A834B83B9
:101920008B81882309F074C08981282F30E03F83A0
:101930002E838E819F818130910559F12E813F81C7
:10194000223031052CF48E819F81009769F0D2C03E
:101950002E813F812230310589F18E819F81833034
:10196000910509F440C0C6C0AAE3B0E0EAE3F0E0A4
:101970008081482F8A81282F30E081E090E0022E7C
:1019800002C0880F991F0A94E2F7809584238C93F4
:10199000B1C0A7E3B0E0E7E3F0E08081482F8A819F
:1019A000282F30E081E090E0022E02C0880F991FBE
:1019B0000A94E2F7809584238C939CC0A4E3B0E062
:1019C000E4E3F0E08081482F8A81282F30E081E035
:1019D00090E0022E02C0880F991F0A94E2F78095CA
:1019E00084238C9387C0A1E3B0E0E1E3F0E0808141
:1019F000482F8A81282F30E081E090E0022E02C03B
:101A0000880F991F0A94E2F7809584238C9372C003
:101A10008B81813009F06EC08981282F30E03D83B1
:101A20002C838C819D818130910549F12C813D81F0
:101A3000223031052CF48C819D81009761F05AC0D1
:101A40002C813D812230310571F18C819D81833063
:101A50009105E9F14FC0AAE3B0E0EAE3F0E080814C
:101A6000482F8A81282F30E081E090E0022E02C0CA
:101A7000880F991F0A94E2F7842B8C933BC0A7E34D
:101A8000B0E0E7E3F0E08081482F8A81282F30E042
:101A900081E090E0022E02C0880F991F0A94E2F7BD
:101AA000842B8C9327C0A4E3B0E0E4E3F0E08081D2
:101AB000482F8A81282F30E081E090E0022E02C07A
:101AC000880F991F0A94E2F7842B8C9313C0A1E32B
:101AD000B0E0E1E3F0E08081482F8A81282F30E0F8
:101AE00081E090E0022E02C0880F991F0A94E2F76D
:101AF000842B8C9327960FB6F894DEBF0FBECDBF14
:101B0000CF91DF910895DF93CF93CDB7DEB72797BD
:101B10000FB6F894DEBF0FBECDBF89836A834B83B7
:101B20008B81882309F074C08981282F30E03F839E
:101B30002E838E819F818130910559F12E813F81C5
:101B4000223031052CF48E819F81009769F0D2C03C
:101B50002E813F812230310589F18E819F81833032
:101B6000910509F440C0C6C0ABE3B0E0EBE3F0E0A0
:101B70008081482F8A81282F30E081E090E0022E7A
:101B800002C0880F991F0A94E2F7809584238C93F2
:101B9000B1C0A8E3B0E0E8E3F0E08081482F8A819B
:101BA000282F30E081E090E0022E02C0880F991FBC
:101BB0000A94E2F7809584238C939CC0A5E3B0E05F
:101BC000E5E3F0E08081482F8A81282F30E081E032
:101BD00090E0022E02C0880F991F0A94E2F78095C8
:101BE00084238C9387C0A2E3B0E0E2E3F0E080813D
:101BF000482F8A81282F30E081E090E0022E02C039
:101C0000880F991F0A94E2F7809584238C9372C001
:101C10008B81813009F06EC08981282F30E03D83AF
:101C20002C838C819D818130910549F12C813D81EE
:101C3000223031052CF48C819D81009761F05AC0CF
:101C40002C813D812230310571F18C819D81833061
:101C50009105E9F14FC0ABE3B0E0EBE3F0E0808148
:101C6000482F8A81282F30E081E090E0022E02C0C8
:101C7000880F991F0A94E2F7842B8C933BC0A8E34A
:101C8000B0E0E8E3F0E08081482F8A81282F30E03F
:101C900081E090E0022E02C0880F991F0A94E2F7BB
:101CA000842B8C9327C0A5E3B0E0E5E3F0E08081CE
:101CB000482F8A81282F30E081E090E0022E02C078
:101CC000880F991F0A94E2F7842B8C9313C0A2E328
:101CD000B0E0E2E3F0E08081482F8A81282F30E0F5
:101CE00081E090E0022E02C0880F991F0A94E2F76B
:101CF000842B8C9327960FB6F894DEBF0FBECDBF12
:101D0000CF91DF910895DF93CF9300D000D000D022
:101D1000CDB7DEB789836A835C834B838981282FA3
:101D200030E03E832D834D815E814130510559F174
:101D30008D819E818230910534F42D813E81211563
:101D4000310569F05BC04D815E814230510579F10A
:101D50008D819E818330910509F43DC04FC0E9E338
:101D6000F0E08081282F30E08A81882F90E0A9015F
:101D700002C0559547958A95E2F7CA018170EB81BB
:101D8000FC8180833BC0E6E3F0E08081282F30E0D7
:101D90008A81882F90E0A90102C0559547958A95C0
:101DA000E2F7CA018170EB81FC81808327C0E3E305
:101DB000F0E08081282F30E08A81882F90E0A9010F
:101DC00002C0559547958A95E2F7CA018170EB816B
:101DD000FC81808313C0E0E3F0E08081282F30E0B5
:101DE0008A81882F90E0A90102C0559547958A9570
:101DF000E2F7CA018170EB81FC81808326960FB6E1
:101E0000F894DEBF0FBECDBFCF91DF910895DF9371
:101E1000CF9300D000D000D0CDB7DEB789836A83DE
:101E20008A81813099F58981282F30E03E832D8386
:101E30008D819E8181309105D1F02D813E812230AE
:101E400031052CF48D819E81009761F050C02D8169
:101E50003E812230310581F08D819E818330910554
:101E600081F045C0EAE3F0E08FEF808340C0E7E314
:101E7000F0E08FEF80833BC0E4E3F0E08FEF8083FE
:101E800036C0E1E3F0E08FEF808331C08A818823A0
:101E900071F58981282F30E03C832B838B819C81D5
:101EA00081309105C9F02B813C81223031052CF421
:101EB0008B819C81009761F01AC02B813C8122307C
:101EC000310571F08B819C818330910569F00FC0E1
:101ED000EAE3F0E010820BC0E7E3F0E0108207C015
:101EE000E4E3F0E0108203C0E1E3F0E01082269624
:101EF0000FB6F894DEBF0FBECDBFCF91DF9108952E
:101F0000DF93CF9300D000D0CDB7DEB789836A834B
:101F10008981282F30E03C832B838B819C81813009
:101F20009105D1F02B813C81223031052CF48B813D
:101F30009C81009761F01EC02B813C8122303105CD
:101F400081F08B819C818330910581F013C0EBE39C
:101F5000F0E08A8180830EC0E8E3F0E08A8180832C
:101F600009C0E5E3F0E08A81808304C0E2E3F0E0A9
:101F70008A8180830F900F900F900F90CF91DF9107
:101F80000895DF93CF9300D000D00F92CDB7DEB786
:101F900089837B836A838981282F30E03D832C836A
:101FA0008C819D8181309105E1F02C813D81223031
:101FB00031052CF48C819D81009761F026C02C8125
:101FC0003D8122303105A1F08C819D8183309105C6
:101FD000B1F01BC0EBE3F0E08081EA81FB818083FC
:101FE00014C0E8E3F0E08081EA81FB8180830DC0CA
:101FF000E5E3F0E08081EA81FB81808306C0E2E3D3
:10200000F0E08081EA81FB8180830F900F900F9038
:102010000F900F90CF91DF910895DF93CF9300D071
:102020000F92CDB7DEB789836A834B830F900F90F1
:102030000F90CF91DF910895DF93CF93CDB7DEB7A7
:10204000A7E2B0E0E7E2F0E0808180648C93A7E251
:10205000B0E0E7E2F0E0808180688C93A7E2B0E036
:10206000E7E2F0E080818F7D8C93A6E2B0E0E6E2CB
:10207000F0E080818F7D8C93A6E2B0E0E6E2F0E0B4
:102080008081877F8C93A6E2B0E0E6E2F0E0808179
:102090008E7F8C93A6E2B0E0E6E2F0E08081826081
:1020A0008C93A6E2B0E0E6E2F0E0808184608C935D
:1020B000A6E2B0E0E6E2F0E0808180688C93CF9108
:1020C000DF910895DF93CF9300D00F92CDB7DEB7A5
:1020D0008B831A8219828B81813009F04DC0A7E26F
:1020E000B0E0E7E2F0E080818E7F8C93A7E2B0E081
:1020F000E7E2F0E080818D7F8C93A7E2B0E0E7E239
:10210000F0E080818B7F8C93A7E2B0E0E7E2F0E023
:102110008081877F8C93A7E2B0E0E7E2F0E08081E6
:102120008F7E8C93A6E2B0E0E6E2F0E080818064EE
:102130008C93E6E2F0E080818295869586958370A7
:10214000882F90E081709070882399F7E4E2F0E0A6
:102150008081882F90E09A838983E5E2F0E0808196
:10216000882F90E0982F88279C0189819A81822B63
:10217000932B9A83898336C28B81823009F04DC0BC
:10218000A7E2B0E0E7E2F0E0808181608C93A7E213
:10219000B0E0E7E2F0E080818D7F8C93A7E2B0E0D1
:1021A000E7E2F0E080818B7F8C93A7E2B0E0E7E28A
:1021B000F0E08081877F8C93A7E2B0E0E7E2F0E077
:1021C00080818F7E8C93A6E2B0E0E6E2F0E0808131
:1021D00080648C93E6E2F0E0808182958695869516
:1021E0008370882F90E081709070882399F7E4E2E3
:1021F000F0E08081882F90E09A838983E5E2F0E027
:102200008081882F90E0982F88279C0189819A816E
:10221000822B932B9A838983E5C18B81833009F0CC
:102220004DC0A7E2B0E0E7E2F0E080818E7F8C93C2
:10223000A7E2B0E0E7E2F0E0808182608C93A7E261
:10224000B0E0E7E2F0E080818B7F8C93A7E2B0E022
:10225000E7E2F0E08081877F8C93A7E2B0E0E7E2DD
:10226000F0E080818F7E8C93A6E2B0E0E6E2F0E0C1
:10227000808180648C93E6E2F0E08081829586958F
:1022800086958370882F90E081709070882399F7ED
:10229000E4E2F0E08081882F90E09A838983E5E290
:1022A000F0E08081882F90E0982F88279C01898119
:1022B0009A81822B932B9A83898394C18B8184305A
:1022C00009F04DC0A7E2B0E0E7E2F0E08081816074
:1022D0008C93A7E2B0E0E7E2F0E0808182608C932B
:1022E000A7E2B0E0E7E2F0E080818B7F8C93A7E289
:1022F000B0E0E7E2F0E08081877F8C93A7E2B0E076
:10230000E7E2F0E080818F7E8C93A6E2B0E0E6E227
:10231000F0E0808180648C93E6E2F0E08081829539
:10232000869586958370882F90E0817090708823C1
:1023300099F7E4E2F0E08081882F90E09A83898326
:10234000E5E2F0E08081882F90E0982F88279C01BB
:1023500089819A81822B932B9A83898343C18B81B4
:10236000853009F04DC0A7E2B0E0E7E2F0E08081FF
:102370008E7F8C93A7E2B0E0E7E2F0E080818D7F72
:102380008C93A7E2B0E0E7E2F0E0808184608C9378
:10239000A7E2B0E0E7E2F0E08081877F8C93A7E2DC
:1023A000B0E0E7E2F0E080818F7E8C93A6E2B0E0BF
:1023B000E6E2F0E0808180648C93E6E2F0E08081E8
:1023C0008295869586958370882F90E081709070B5
:1023D000882399F7E4E2F0E08081882F90E09A83E7
:1023E0008983E5E2F0E08081882F90E0982F8827AC
:1023F0009C0189819A81822B932B9A838983F2C0D5
:102400008B81863009F04DC0A7E2B0E0E7E2F0E052
:10241000808181608C93A7E2B0E0E7E2F0E0808108
:102420008D7F8C93A7E2B0E0E7E2F0E080818460EA
:102430008C93A7E2B0E0E7E2F0E08081877F8C93A5
:10244000A7E2B0E0E7E2F0E080818F7E8C93A6E225
:10245000B0E0E6E2F0E0808180648C93E6E2F0E0B8
:1024600080818295869586958370882F90E0817013
:102470009070882399F7E4E2F0E08081882F90E063
:102480009A838983E5E2F0E08081882F90E0982F9D
:1024900088279C0189819A81822B932B9A83898337
:1024A000A1C08B81873009F04DC0A7E2B0E0E7E220
:1024B000F0E080818E7F8C93A7E2B0E0E7E2F0E06D
:1024C000808182608C93A7E2B0E0E7E2F0E0808157
:1024D00084608C93A7E2B0E0E7E2F0E08081877F40
:1024E0008C93A7E2B0E0E7E2F0E080818F7E8C93EE
:1024F000A6E2B0E0E6E2F0E0808180648C93E6E260
:10250000F0E080818295869586958370882F90E093
:1025100081709070882399F7E4E2F0E08081882F41
:1025200090E09A838983E5E2F0E08081882F90E053
:10253000982F88279C0189819A81822B932B9A83DB
:10254000898350C08B81883009F04CC0A7E2B0E08D
:10255000E7E2F0E0808181608C93A7E2B0E0E7E2FF
:10256000F0E0808182608C93A7E2B0E0E7E2F0E0E7
:10257000808184608C93A7E2B0E0E7E2F0E08081A4
:10258000877F8C93A7E2B0E0E7E2F0E080818F7E66
:102590008C93A6E2B0E0E6E2F0E0808180648C9368
:1025A000E6E2F0E080818295869586958370882F9B
:1025B00090E081709070882399F7E4E2F0E08081E8
:1025C000882F90E09A838983E5E2F0E08081882F6C
:1025D00090E0982F88279C0189819A81822B932BE8
:1025E0009A83898389819A810F900F900F90CF9160
:1025F000DF910895DF93CF93CDB7DEB70E941C1013
:10260000CF91DF910895DF93CF9300D000D00F9248
:10261000CDB7DEB78D831C821B821A8219828D8111
:102620000E9462109C838B838B819C81CC01A0E0F3
:10263000B0E0BC01CD010E94FD03DC01CB01BC0177
:10264000CD0120E030E040E85EE30E941F02DC01A3
:10265000CB01BC01CD010E944900DC01CB019A8372
:10266000898389819A810F900F900F900F900F901E
:10267000CF91DF910895DF93CF93CDB7DEB72F973A
:102680000FB6F894DEBF0FBECDBF8F8783E065E045
:1026900041E00E94830D83E066E040E00E94830DEC
:1026A00082E06F850E94800F83E067E041E00E9436
:1026B000830D80E090E0A0E4B0E48B879C87AD8739
:1026C000BE876B857C858D859E8520E030E04AEF56
:1026D00054E40E941F02DC01CB018F839887A987F5
:1026E000BA876F81788589859A8520E030E040E857
:1026F0005FE30E94790388232CF481E090E09E83BD
:102700008D833FC06F81788589859A8520E03FEF72
:102710004FE757E40E94190318164CF56B857C852A
:102720008D859E8520E030E040E251E40E941F024A
:10273000DC01CB01BC01CD010E944900DC01CB01D1
:102740009E838D830FC088EC90E09C838B838B816C
:102750009C810197F1F79C838B838D819E810197EA
:102760009E838D838D819E81009769F714C06F8150
:10277000788589859A850E944900DC01CB019E837A
:102780008D838D819E819A83898389819A81019726
:10279000F1F79A83898383E067E040E00E94830D2C
:1027A0002F960FB6F894DEBF0FBECDBFCF91DF914D
:1027B0000895DF93CF93CDB7DEB72F970FB6F89478
:1027C000DEBF0FBECDBF8F8783E065E040E00E9493
:1027D000830D83E066E040E00E94830D82E06F8518
:1027E0000E94800F83E067E041E00E94830D80E05B
:1027F00090E0A0E4B0E48B879C87AD87BE876B85B3
:102800007C858D859E8520E030E04AEF54E40E946F
:102810001F02DC01CB018F839887A987BA876F815C
:10282000788589859A8520E030E040E85FE30E9462
:10283000790388232CF481E090E09E838D833FC050
:102840006F81788589859A8520E03FEF4FE757E4CF
:102850000E94190318164CF56B857C858D859E8525
:1028600020E030E040E251E40E941F02DC01CB0195
:10287000BC01CD010E944900DC01CB019E838D8308
:102880000FC088EC90E09C838B838B819C810197A7
:10289000F1F79C838B838D819E8101979E838D832D
:1028A0008D819E81009769F714C06F817885898535
:1028B0009A850E944900DC01CB019E838D838D8126
:1028C0009E819A83898389819A810197F1F79A83FE
:1028D000898383E067E040E00E94830D2F960FB666
:1028E000F894DEBF0FBECDBFCF91DF910895DF9387
:1028F000CF93CDB7DEB76C970FB6F894DEBF0FBE9F
:10290000CDBF80E090E0A0E2B2E4898F9A8FAB8FD8
:10291000BC8F698D7A8D8B8D9C8D20E030E04AEFE5
:1029200054E40E941F02DC01CB018D8B9E8BAF8B88
:10293000B88F6D897E898F89988D20E030E040E8DE
:102940005FE30E94790388232CF481E090E09C8B64
:102950008B8B3FC06D897E898F89988D20E03FEFFA
:102960004FE757E40E94190318164CF5698D7A8DCC
:102970008B8D9C8D20E030E040E251E40E941F02EC
:10298000DC01CB01BC01CD010E944900DC01CB017F
:102990009C8B8B8B0FC088EC90E09A8B898B8989FC
:1029A0009A890197F1F79A8B898B8B899C8901977A
:1029B0009C8B8B8B8B899C89009769F714C06D89E0
:1029C0007E898F89988D0E944900DC01CB019C8B08
:1029D0008B8B8B899C89988B8F878F8598890197A2
:1029E000F1F7988B8F878CE30E94D91380E090E0F9
:1029F000A0E8BFE38B879C87AD87BE876B857C850E
:102A00008D859E8520E030E04AEF54E40E941F024D
:102A1000DC01CB018F839887A987BA876F8178857E
:102A200089859A8520E030E040E85FE30E947903E1
:102A300088232CF481E090E09E838D833FC06F81DA
:102A4000788589859A8520E03FEF4FE757E40E941B
:102A5000190318164CF56B857C858D859E8520E0C5
:102A600030E040E251E40E941F02DC01CB01BC01D6
:102A7000CD010E944900DC01CB019E838D830FC0F4
:102A800088EC90E09C838B838B819C810197F1F78C
:102A90009C838B838D819E8101979E838D838D8105
:102AA0009E81009769F714C06F81788589859A8522
:102AB0000E944900DC01CB019E838D838D819E8124
:102AC0009A83898389819A810197F1F79A8389830F
:102AD0008CE00E94D91381E00E94D9136C960FB646
:102AE000F894DEBF0FBECDBFCF91DF910895DF9385
:102AF000CF93CDB7DEB781E00E94D913CF91DF919C
:102B00000895DF93CF9300D0CDB7DEB789836A8372
:102B10008981813019F48A81805C8A838A81805816
:102B20000E94D9130F900F90CF91DF910895DF93FA
:102B3000CF93CDB7DEB727970FB6F894DEBF0FBEA1
:102B4000CDBF9C838B836D834E832F838D81882F94
:102B500090E0880F991F880F991F880F991F8A830B
:102B60008A81805C0E94D91319820EC08981282F26
:102B700030E08B819C81FC01E20FF31F80810E9479
:102B80003B1389818F5F89838981883078F38E81B7
:102B90006F810E9481158D810E943B1327960FB68D
:102BA000F894DEBF0FBECDBFCF91DF910895DF93C4
:102BB000CF9300D0CDB7DEB79A83898389819A817C
:102BC0000097A1F089819A812AE030E0B9010E9442
:102BD000E618CB010E94D71589819A812AE030E05E
:102BE000B9010E94E618805D0E943B130F900F9080
:102BF000CF91DF910895DF93CF9300D0CDB7DEB7AB
:102C00009A8389830AC0E981FA8180810E943B13FB
:102C100089819A8101969A838983E981FA818081E9
:102C2000882389F70F900F90CF91DF910895DF935C
:102C3000CF93CDB7DEB781E060E041E00E94830C26
:102C400081E061E041E00E94830C81E062E041E0CC
:102C50000E94830C81E063E041E00E94830C80E0ED
:102C600060E040E00E94830C80E061E040E00E9470
:102C7000830C80E062E040E00E94830C80E063E02F
:102C800040E00E94830C80E06FE00E94800FCF91B3
:102C9000DF910895DF93CF93CDB7DEB7A8970FB636
:102CA000F894DEBF0FBECDBFCE0142969DA38CA38C
:102CB000E4ECF1E0FFA3EEA3F0E1F8A7EEA1FFA1A1
:102CC00000808EA19FA101969FA38EA3ECA1FDA1E0
:102CD00000828CA19DA101969DA38CA398A59150E3
:102CE00098A7E8A5EE2351F7188AD3C08889882FC2
:102CF00090E0FC01E454FE4F908181E0692F40E0B8
:102D00000E94830D1F86B2C08F85882F90E0FC0142
:102D1000E054FE4F90819E012E5D3F4F80E0692F71
:102D2000A9010E94830E8AA1882309F09CC080E03B
:102D300090E0A8E4B3E48B879C87AD87BE876B8562
:102D40007C858D859E8520E030E04AEF54E40E942A
:102D50001F02DC01CB018F839887A987BA876F8117
:102D6000788589859A8520E030E040E85FE30E941D
:102D7000790388232CF481E090E09E838D833FC00B
:102D80006F81788589859A8520E03FEF4FE757E48A
:102D90000E94190318164CF56B857C858D859E85E0
:102DA00020E030E040E251E40E941F02DC01CB0150
:102DB000BC01CD010E944900DC01CB019E838D83C3
:102DC0000FC088EC90E09C838B838B819C81019762
:102DD000F1F79C838B838D819E8101979E838D83E8
:102DE0008D819E81009769F714C06F8178858985F0
:102DF0009A850E944900DC01CB019E838D838D81E1
:102E00009E819A83898389819A810197F1F79A83B8
:102E100089838F85282F30E08889482F50E0220F42
:102E2000331F220F331FCE010196820F931F840F91
:102E3000951FFC0171968081898B0FC08F85882F2B
:102E400090E0FC01E054FE4F90819E012E5D3F4FCB
:102E500080E0692FA9010E94830E8AA1882371F363
:102E6000F989FBA31CC08F858F5F8F878F85843086
:102E700008F44ACF8889882F90E0FC01E454FE4F83
:102E8000908181E0692F41E00E94830D88898F5FE6
:102E9000888B8889843008F429CF85E68BA38BA1A1
:102EA000A8960FB6F894DEBF0FBECDBFCF91DF91CD
:102EB0000895DF93CF93CDB7DEB782E061E041E0C4
:102EC0000E94830C82E060E041E00E94830CCF917D
:102ED000DF910895DF93CF93CDB7DEB782E060E056
:102EE00041E00E94830D82E061E040E00E94830D9A
:102EF000CF91DF910895DF93CF93CDB7DEB782E016
:102F000061E041E00E94830D82E060E040E00E94C9
:102F1000830DCF91DF910895DF93CF93CDB7DEB7C7
:102F200082E060E041E00E94830D82E060E041E0E9
:102F30000E94830DCF91DF910895DF93CF93CDB79A
:102F4000DEB78091EA01882319F18091EA0181308E
:102F500049F4A8E3B0E0E8E3F0E0908181E089275C
:102F60008C9316C08091EA01823031F481E060E0F8
:102F700041E00E94830D0CC08091EA01833041F44E
:102F8000A8E3B0E0E8E3F0E0908181E089278C934A
:102F9000CF91DF910895DF93CF93CDB7DEB7AAE548
:102FA000B0E0EAE5F0E0808180688C938091EA01EE
:102FB0008823D1F08091EA018130B1F08091EA015B
:102FC000823031F481E060E040E00E94830D0CC06B
:102FD0008091EA01833041F4A8E3B0E0E8E3F0E057
:102FE000908182E089278C93CF91DF910895DF93C0
:102FF000CF9300D0CDB7DEB782E061E00E94070F2B
:1030000083E065E041E00E94830C83E066E041E0FC
:103010000E94830C83E067E041E00E94830C0E94E1
:10302000771480E060E040E00E94830C0E941C1056
:1030300083E062E040E00E94830C83E063E040E0D4
:103040000E94830C0E941A0A0E94360A81E060E006
:1030500041E00E94830C81E061E041E00E94830C2A
:1030600081E061E040E00E94830D81E060E040E0AB
:103070000E94830D8DE997E10E94930B8BEC97E101
:103080000E94E30B80E065E00E94811580E690E0FD
:103090000E94FB1581E064E00E94811589E690E0C2
:1030A0000E94FB1581E00E9462109A8389838981C6
:1030B0009A8122E089359207E8F089819A8122E09D
:1030C0008C3B9207B8F40E94280A0E94771580E092
:1030D00061E00E94811585E790E00E94FB1581E088
:1030E00060E00E9481158CE790E00E94FB15109231
:1030F000EA01D8CF89819A8123E085389207F0F0E0
:1031000089819A8123E0883E9207C0F40E941A0ABE
:103110000E94771580E061E00E94811588E890E0C8
:103120000E94FB1581E061E00E9481158FE890E02C
:103130000E94FB1581E08093EA01B4CF89819A81D6
:10314000813A9105E8F089819A81883C9105C0F423
:103150000E941A0A0E94771580E061E00E948115A2
:1031600086E990E00E94FB1581E061E00E948115F4
:103170008DE990E00E94FB1582E08093EA0192CFF6
:1031800089819A8123E08132920708F48BCF89816B
:103190009A8123E08438920708F084CF0E941A0AAB
:1031A0000E94771580E061E00E9481158DEA90E031
:1031B0000E94FB1581E061E00E9481158DE990E09D
:1031C0000E94FB1583E08093EA016CCFAA1BBB1B16
:1031D00051E107C0AA1FBB1FA617B70710F0A61B17
:1031E000B70B881F991F5A95A9F780959095BC0138
:1031F000CD0108952F923F924F925F926F927F92EE
:103200008F929F92AF92BF92CF92DF92EF92FF92F6
:103210000F931F93CF93DF93CDB7DEB7CA1BDB0BA2
:103220000FB6F894DEBF0FBECDBF09942A88398847
:1032300048885F846E847D848C849B84AA84B9844E
:10324000C884DF80EE80FD800C811B81AA81B9815A
:10325000CE0FD11D0FB6F894DEBF0FBECDBFED016E
:063260000895F894FFCF71
:1032660057656C636F6D6521004368616C6C656EB4
:1032760067652031004D4F44452030004E6F204D8C
:1032860061736B61626C65004D4F444520310045AA
:103296005854492030004D4F44452032004558547B
:1032A600492030202C20455854492031004D4F44A8
:1032B600452033000000000000000000000102026B
:1032C60003030303040404040404040405050505B8
:1032D6000505050505050505050505050606060694
:1032E6000606060606060606060606060606060678
:1032F6000606060606060606060606060707070764
:103306000707070707070707070707070707070747
:103316000707070707070707070707070707070737
:103326000707070707070707070707070707070727
:103336000707070707070707070707070808080813
:1033460008080808080808080808080808080808F7
:1033560008080808080808080808080808080808E7
:1033660008080808080808080808080808080808D7
:1033760008080808080808080808080808080808C7
:1033860008080808080808080808080808080808B7
:1033960008080808080808080808080808080808A7
:1033A6000808080808080808080808080808080897
:1033B60008080808080808080808080800010203A1
:1033C600000102033738392F3435362A3132332D8E
:0433D60043303D2B18
:00000001FF
